{
  "contractName": "Adoption",
  "abi": [
    {
      "constant": true,
      "inputs": [
        {
          "name": "",
          "type": "uint256"
        }
      ],
      "name": "adopters",
      "outputs": [
        {
          "name": "",
          "type": "address"
        }
      ],
      "payable": false,
      "stateMutability": "view",
      "type": "function"
    },
    {
      "constant": false,
      "inputs": [
        {
          "name": "petId",
          "type": "uint256"
        }
      ],
      "name": "adopt",
      "outputs": [
        {
          "name": "",
          "type": "uint256"
        }
      ],
      "payable": false,
      "stateMutability": "nonpayable",
      "type": "function"
    }
  ],
  "bytecode": "0x6060604052341561000f57600080fd5b6101c18061001e6000396000f30060606040526004361061004c576000357c0100000000000000000000000000000000000000000000000000000000900463ffffffff16806343ae80d3146100515780638588b2c5146100b4575b600080fd5b341561005c57600080fd5b61007260048080359060200190919050506100eb565b604051808273ffffffffffffffffffffffffffffffffffffffff1673ffffffffffffffffffffffffffffffffffffffff16815260200191505060405180910390f35b34156100bf57600080fd5b6100d56004808035906020019091905050610120565b6040518082815260200191505060405180910390f35b6000816010811015156100fa57fe5b016000915054906101000a900473ffffffffffffffffffffffffffffffffffffffff1681565b60008082101580156101335750600f8211155b151561013e57600080fd5b3360008360108110151561014e57fe5b0160006101000a81548173ffffffffffffffffffffffffffffffffffffffff021916908373ffffffffffffffffffffffffffffffffffffffff1602179055508190509190505600a165627a7a72305820dafcbf464a7388cfaebfccb84490ea557f8cf9eaf83c5171bd44afd8c4ec01a20029",
  "source": "pragma solidity ^0.4.17;\n\ncontract Adoption {\n\n\t// 成员变量 类型：数组， 元素类型：eth 账户地址，\n\taddress[16] public adopters;\n\n\t// 函数 领养一个宠物\n\tfunction adopt(uint petId) public returns (uint) {\n\t\t// petId 不能超出数组长度，这里数组长度表示宠物数量\n  \t\trequire(petId >= 0 && petId <= 15);\n\n  \t\t// 表示 petId 对应的宠物被 msg.sender 领养，msg.sender: 表示当前调用合约的账户对象 类型：address\n  \t\tadopters[petId] = msg.sender;\n\n  \t\treturn petId;\n\t}\n\n}",
  "sourcePath": "/Users/nerc/Documents/fangmingdong/ethRelate/truffle-tutorials/pet-shop-tutorial/contracts/Adoption.sol",
  "compiler": {
    "name": "solc",
    "version": "0.4.19+commit.c4cbbb05.Emscripten.clang"
  },
  "schemaVersion": "2.0.0",
  "updatedAt": "2018-03-01T06:20:27.147Z"
}