{
  "contractName": "AccountAddValue",
  "abi": [
    {
      "inputs": [],
      "payable": false,
      "stateMutability": "nonpayable",
      "type": "constructor"
    },
    {
      "constant": false,
      "inputs": [
        {
          "name": "_receiver",
          "type": "address"
        },
        {
          "name": "_value",
          "type": "uint256"
        }
      ],
      "name": "setValue",
      "outputs": [],
      "payable": false,
      "stateMutability": "nonpayable",
      "type": "function"
    },
    {
      "constant": true,
      "inputs": [
        {
          "name": "_address",
          "type": "address"
        }
      ],
      "name": "getValue",
      "outputs": [
        {
          "name": "",
          "type": "uint256"
        }
      ],
      "payable": false,
      "stateMutability": "view",
      "type": "function"
    },
    {
      "constant": true,
      "inputs": [
        {
          "name": "_address",
          "type": "address"
        }
      ],
      "name": "sayHello",
      "outputs": [
        {
          "name": "",
          "type": "string"
        }
      ],
      "payable": false,
      "stateMutability": "view",
      "type": "function"
    },
    {
      "constant": false,
      "inputs": [
        {
          "name": "_address",
          "type": "address"
        },
        {
          "name": "_name",
          "type": "string"
        }
      ],
      "name": "setName",
      "outputs": [],
      "payable": false,
      "stateMutability": "nonpayable",
      "type": "function"
    },
    {
      "constant": true,
      "inputs": [
        {
          "name": "_address",
          "type": "address"
        }
      ],
      "name": "getName",
      "outputs": [
        {
          "name": "",
          "type": "string"
        }
      ],
      "payable": false,
      "stateMutability": "view",
      "type": "function"
    }
  ],
  "bytecode": "0x6060604052341561000f57600080fd5b6105d98061001e6000396000f30060606040526004361061006d576000357c0100000000000000000000000000000000000000000000000000000000900463ffffffff1680633121db1c146100725780633ccc0522146100ee57806348461b561461013b5780635fd4b08a1461017d57806392f85b941461022f575b600080fd5b341561007d57600080fd5b6100ec600480803573ffffffffffffffffffffffffffffffffffffffff1690602001909190803590602001908201803590602001908080601f016020809104026020016040519081016040528093929190818152602001838380828437820191505050505050919050506102e1565b005b34156100f957600080fd5b610125600480803573ffffffffffffffffffffffffffffffffffffffff16906020019091905050610339565b6040518082815260200191505060405180910390f35b341561014657600080fd5b61017b600480803573ffffffffffffffffffffffffffffffffffffffff16906020019091908035906020019091905050610381565b005b341561018857600080fd5b6101b4600480803573ffffffffffffffffffffffffffffffffffffffff169060200190919050506103c8565b6040518080602001828103825283818151815260200191508051906020019080838360005b838110156101f45780820151818401526020810190506101d9565b50505050905090810190601f1680156102215780820380516001836020036101000a031916815260200191505b509250505060405180910390f35b341561023a57600080fd5b610266600480803573ffffffffffffffffffffffffffffffffffffffff169060200190919050506104af565b6040518080602001828103825283818151815260200191508051906020019080838360005b838110156102a657808201518184015260208101905061028b565b50505050905090810190601f1680156102d35780820380516001836020036101000a031916815260200191505b509250505060405180910390f35b80600160008473ffffffffffffffffffffffffffffffffffffffff1673ffffffffffffffffffffffffffffffffffffffff16815260200190815260200160002090805190602001906103349291906104f4565b505050565b60008060008373ffffffffffffffffffffffffffffffffffffffff1673ffffffffffffffffffffffffffffffffffffffff168152602001908152602001600020549050919050565b806000808473ffffffffffffffffffffffffffffffffffffffff1673ffffffffffffffffffffffffffffffffffffffff168152602001908152602001600020819055505050565b6103d0610574565b600160008373ffffffffffffffffffffffffffffffffffffffff1673ffffffffffffffffffffffffffffffffffffffff1681526020019081526020016000208054600181600116156101000203166002900480601f0160208091040260200160405190810160405280929190818152602001828054600181600116156101000203166002900480156104a35780601f10610478576101008083540402835291602001916104a3565b820191906000526020600020905b81548152906001019060200180831161048657829003601f168201915b50505050509050919050565b6104b7610574565b6040805190810160405280600581526020017f48656c6c6f0000000000000000000000000000000000000000000000000000008152509050919050565b828054600181600116156101000203166002900490600052602060002090601f016020900481019282601f1061053557805160ff1916838001178555610563565b82800160010185558215610563579182015b82811115610562578251825591602001919060010190610547565b5b5090506105709190610588565b5090565b602060405190810160405280600081525090565b6105aa91905b808211156105a657600081600090555060010161058e565b5090565b905600a165627a7a72305820b31cb92383f25251fe89db00b6ffc958f7f72b1409b9b4b15bdebc5ac8e91be10029",
  "source": "pragma solidity ^0.4.18;\n\ncontract AccountAddValue{\n\tmapping (address => uint) values;\n\tmapping (address => string) names;\n\n\tfunction AccountAddValue() public{\n\n\t}\n\n\tfunction setValue(address _receiver, uint _value) public {\n\t\tvalues[_receiver] = _value;\n\t}\n\n\tfunction getValue(address _address) constant public returns(uint){\n\t\treturn values[_address];\n\t}\n\n\tfunction sayHello(address _address) constant public returns(string){\n\t\treturn \"Hello\";\n\t}\n\n\tfunction setName(address _address, string _name) public{\t\t\n\t\tnames[_address] = _name;\n\t}\n\n\tfunction getName(address _address) constant public returns(string){\n\t\treturn names[_address];\n\t}\n}\n",
  "sourcePath": "/Users/nerc/Documents/fangmingdong/ethRelate/truffle-demo/0-account-add-value/contracts/AccountAddValue.sol",
  "compiler": {
    "name": "solc",
    "version": "0.4.19+commit.c4cbbb05.Emscripten.clang"
  },
  "schemaVersion": "2.0.0",
  "updatedAt": "2018-03-01T06:45:56.784Z"
}